{
  "_format": "hh-sol-artifact-1",
  "contractName": "ReforgeRouterV5",
  "sourceName": "contracts/reforge-v5/ReforgeRouter/ReforgeRouterV5.sol",
  "abi": [
    {
      "inputs": [
        {
          "internalType": "address",
          "name": "_endpoint",
          "type": "address"
        }
      ],
      "stateMutability": "nonpayable",
      "type": "constructor"
    },
    {
      "inputs": [],
      "name": "AccessControlBadConfirmation",
      "type": "error"
    },
    {
      "inputs": [
        {
          "internalType": "address",
          "name": "account",
          "type": "address"
        },
        {
          "internalType": "bytes32",
          "name": "neededRole",
          "type": "bytes32"
        }
      ],
      "name": "AccessControlUnauthorizedAccount",
      "type": "error"
    },
    {
      "inputs": [
        {
          "internalType": "address",
          "name": "target",
          "type": "address"
        }
      ],
      "name": "AddressEmptyCode",
      "type": "error"
    },
    {
      "inputs": [],
      "name": "ECDSAInvalidSignature",
      "type": "error"
    },
    {
      "inputs": [
        {
          "internalType": "uint256",
          "name": "length",
          "type": "uint256"
        }
      ],
      "name": "ECDSAInvalidSignatureLength",
      "type": "error"
    },
    {
      "inputs": [
        {
          "internalType": "bytes32",
          "name": "s",
          "type": "bytes32"
        }
      ],
      "name": "ECDSAInvalidSignatureS",
      "type": "error"
    },
    {
      "inputs": [
        {
          "internalType": "address",
          "name": "implementation",
          "type": "address"
        }
      ],
      "name": "ERC1967InvalidImplementation",
      "type": "error"
    },
    {
      "inputs": [],
      "name": "ERC1967NonPayable",
      "type": "error"
    },
    {
      "inputs": [],
      "name": "FailedCall",
      "type": "error"
    },
    {
      "inputs": [],
      "name": "FurnaceExecuted",
      "type": "error"
    },
    {
      "inputs": [
        {
          "internalType": "uint128",
          "name": "provided",
          "type": "uint128"
        },
        {
          "internalType": "uint128",
          "name": "minimum",
          "type": "uint128"
        }
      ],
      "name": "GasLimitTooLow",
      "type": "error"
    },
    {
      "inputs": [
        {
          "internalType": "uint256",
          "name": "balance",
          "type": "uint256"
        },
        {
          "internalType": "uint256",
          "name": "needed",
          "type": "uint256"
        }
      ],
      "name": "InsufficientBalance",
      "type": "error"
    },
    {
      "inputs": [
        {
          "internalType": "uint256",
          "name": "provided",
          "type": "uint256"
        },
        {
          "internalType": "uint256",
          "name": "required",
          "type": "uint256"
        }
      ],
      "name": "InsufficientFee",
      "type": "error"
    },
    {
      "inputs": [
        {
          "internalType": "uint256",
          "name": "validCount",
          "type": "uint256"
        },
        {
          "internalType": "uint256",
          "name": "required",
          "type": "uint256"
        }
      ],
      "name": "InsufficientValidSignatures",
      "type": "error"
    },
    {
      "inputs": [],
      "name": "InvalidDelegate",
      "type": "error"
    },
    {
      "inputs": [],
      "name": "InvalidEndpointCall",
      "type": "error"
    },
    {
      "inputs": [],
      "name": "InvalidInitialization",
      "type": "error"
    },
    {
      "inputs": [
        {
          "internalType": "uint16",
          "name": "optionType",
          "type": "uint16"
        }
      ],
      "name": "InvalidOptionType",
      "type": "error"
    },
    {
      "inputs": [],
      "name": "InvalidPeer",
      "type": "error"
    },
    {
      "inputs": [],
      "name": "InvalidRequiredSignatures",
      "type": "error"
    },
    {
      "inputs": [],
      "name": "LzPaused",
      "type": "error"
    },
    {
      "inputs": [],
      "name": "LzTokenUnavailable",
      "type": "error"
    },
    {
      "inputs": [
        {
          "internalType": "uint32",
          "name": "eid",
          "type": "uint32"
        }
      ],
      "name": "NoPeer",
      "type": "error"
    },
    {
      "inputs": [
        {
          "internalType": "uint256",
          "name": "msgValue",
          "type": "uint256"
        }
      ],
      "name": "NotEnoughNative",
      "type": "error"
    },
    {
      "inputs": [],
      "name": "NotInitializing",
      "type": "error"
    },
    {
      "inputs": [
        {
          "internalType": "address",
          "name": "addr",
          "type": "address"
        }
      ],
      "name": "OnlyEndpoint",
      "type": "error"
    },
    {
      "inputs": [
        {
          "internalType": "uint32",
          "name": "eid",
          "type": "uint32"
        },
        {
          "internalType": "bytes32",
          "name": "sender",
          "type": "bytes32"
        }
      ],
      "name": "OnlyPeer",
      "type": "error"
    },
    {
      "inputs": [
        {
          "internalType": "address",
          "name": "owner",
          "type": "address"
        }
      ],
      "name": "OwnableInvalidOwner",
      "type": "error"
    },
    {
      "inputs": [
        {
          "internalType": "address",
          "name": "account",
          "type": "address"
        }
      ],
      "name": "OwnableUnauthorizedAccount",
      "type": "error"
    },
    {
      "inputs": [],
      "name": "ReentrancyGuardReentrantCall",
      "type": "error"
    },
    {
      "inputs": [
        {
          "internalType": "uint8",
          "name": "bits",
          "type": "uint8"
        },
        {
          "internalType": "uint256",
          "name": "value",
          "type": "uint256"
        }
      ],
      "name": "SafeCastOverflowedUintDowncast",
      "type": "error"
    },
    {
      "inputs": [
        {
          "internalType": "address",
          "name": "token",
          "type": "address"
        }
      ],
      "name": "SafeERC20FailedOperation",
      "type": "error"
    },
    {
      "inputs": [
        {
          "internalType": "address",
          "name": "signer",
          "type": "address"
        }
      ],
      "name": "SignerExists",
      "type": "error"
    },
    {
      "inputs": [
        {
          "internalType": "address",
          "name": "token",
          "type": "address"
        }
      ],
      "name": "TokenAlreadyBridgeable",
      "type": "error"
    },
    {
      "inputs": [
        {
          "internalType": "address",
          "name": "token",
          "type": "address"
        }
      ],
      "name": "TokenNotBridgeable",
      "type": "error"
    },
    {
      "inputs": [],
      "name": "UUPSUnauthorizedCallContext",
      "type": "error"
    },
    {
      "inputs": [
        {
          "internalType": "bytes32",
          "name": "slot",
          "type": "bytes32"
        }
      ],
      "name": "UUPSUnsupportedProxiableUUID",
      "type": "error"
    },
    {
      "inputs": [],
      "name": "ZeroAddress",
      "type": "error"
    },
    {
      "inputs": [],
      "name": "ZeroAmount",
      "type": "error"
    },
    {
      "anonymous": false,
      "inputs": [
        {
          "indexed": true,
          "internalType": "address",
          "name": "token",
          "type": "address"
        }
      ],
      "name": "BridgeableTokenAdded",
      "type": "event"
    },
    {
      "anonymous": false,
      "inputs": [
        {
          "indexed": true,
          "internalType": "address",
          "name": "token",
          "type": "address"
        }
      ],
      "name": "BridgeableTokenRemoved",
      "type": "event"
    },
    {
      "anonymous": false,
      "inputs": [],
      "name": "EIP712DomainChanged",
      "type": "event"
    },
    {
      "anonymous": false,
      "inputs": [
        {
          "indexed": true,
          "internalType": "address",
          "name": "treasury",
          "type": "address"
        }
      ],
      "name": "FeeTreasuryUpdated",
      "type": "event"
    },
    {
      "anonymous": false,
      "inputs": [
        {
          "indexed": false,
          "internalType": "uint64",
          "name": "version",
          "type": "uint64"
        }
      ],
      "name": "Initialized",
      "type": "event"
    },
    {
      "anonymous": false,
      "inputs": [
        {
          "indexed": true,
          "internalType": "address",
          "name": "sender",
          "type": "address"
        },
        {
          "indexed": true,
          "internalType": "address",
          "name": "recipient",
          "type": "address"
        },
        {
          "indexed": false,
          "internalType": "uint32",
          "name": "dstEid",
          "type": "uint32"
        },
        {
          "indexed": false,
          "internalType": "address",
          "name": "srcContract",
          "type": "address"
        },
        {
          "indexed": false,
          "internalType": "address",
          "name": "dstContract",
          "type": "address"
        },
        {
          "indexed": false,
          "internalType": "bytes",
          "name": "payload",
          "type": "bytes"
        },
        {
          "indexed": false,
          "internalType": "bytes32",
          "name": "guid",
          "type": "bytes32"
        }
      ],
      "name": "LzFurnaced",
      "type": "event"
    },
    {
      "anonymous": false,
      "inputs": [
        {
          "indexed": true,
          "internalType": "address",
          "name": "account",
          "type": "address"
        },
        {
          "indexed": false,
          "internalType": "bool",
          "name": "paused",
          "type": "bool"
        }
      ],
      "name": "LzPauseStateChanged",
      "type": "event"
    },
    {
      "anonymous": false,
      "inputs": [
        {
          "indexed": true,
          "internalType": "address",
          "name": "account",
          "type": "address"
        },
        {
          "indexed": false,
          "internalType": "uint32",
          "name": "srcEid",
          "type": "uint32"
        },
        {
          "indexed": false,
          "internalType": "address",
          "name": "dstContract",
          "type": "address"
        },
        {
          "indexed": false,
          "internalType": "bytes",
          "name": "payload",
          "type": "bytes"
        },
        {
          "indexed": false,
          "internalType": "bytes32",
          "name": "guid",
          "type": "bytes32"
        }
      ],
      "name": "LzReforged",
      "type": "event"
    },
    {
      "anonymous": false,
      "inputs": [
        {
          "indexed": true,
          "internalType": "address",
          "name": "previousOwner",
          "type": "address"
        },
        {
          "indexed": true,
          "internalType": "address",
          "name": "newOwner",
          "type": "address"
        }
      ],
      "name": "OwnershipTransferred",
      "type": "event"
    },
    {
      "anonymous": false,
      "inputs": [
        {
          "indexed": false,
          "internalType": "uint32",
          "name": "eid",
          "type": "uint32"
        },
        {
          "indexed": false,
          "internalType": "bytes32",
          "name": "peer",
          "type": "bytes32"
        }
      ],
      "name": "PeerSet",
      "type": "event"
    },
    {
      "anonymous": false,
      "inputs": [
        {
          "indexed": false,
          "internalType": "uint256",
          "name": "required",
          "type": "uint256"
        }
      ],
      "name": "RequiredSignaturesUpdated",
      "type": "event"
    },
    {
      "anonymous": false,
      "inputs": [
        {
          "indexed": true,
          "internalType": "bytes32",
          "name": "role",
          "type": "bytes32"
        },
        {
          "indexed": true,
          "internalType": "bytes32",
          "name": "previousAdminRole",
          "type": "bytes32"
        },
        {
          "indexed": true,
          "internalType": "bytes32",
          "name": "newAdminRole",
          "type": "bytes32"
        }
      ],
      "name": "RoleAdminChanged",
      "type": "event"
    },
    {
      "anonymous": false,
      "inputs": [
        {
          "indexed": true,
          "internalType": "bytes32",
          "name": "role",
          "type": "bytes32"
        },
        {
          "indexed": true,
          "internalType": "address",
          "name": "account",
          "type": "address"
        },
        {
          "indexed": true,
          "internalType": "address",
          "name": "sender",
          "type": "address"
        }
      ],
      "name": "RoleGranted",
      "type": "event"
    },
    {
      "anonymous": false,
      "inputs": [
        {
          "indexed": true,
          "internalType": "bytes32",
          "name": "role",
          "type": "bytes32"
        },
        {
          "indexed": true,
          "internalType": "address",
          "name": "account",
          "type": "address"
        },
        {
          "indexed": true,
          "internalType": "address",
          "name": "sender",
          "type": "address"
        }
      ],
      "name": "RoleRevoked",
      "type": "event"
    },
    {
      "anonymous": false,
      "inputs": [
        {
          "indexed": false,
          "internalType": "uint256",
          "name": "fee",
          "type": "uint256"
        }
      ],
      "name": "SendProtocolFeeUpdated",
      "type": "event"
    },
    {
      "anonymous": false,
      "inputs": [
        {
          "indexed": true,
          "internalType": "address",
          "name": "signer",
          "type": "address"
        }
      ],
      "name": "SignerAdded",
      "type": "event"
    },
    {
      "anonymous": false,
      "inputs": [
        {
          "indexed": true,
          "internalType": "address",
          "name": "signer",
          "type": "address"
        }
      ],
      "name": "SignerRemoved",
      "type": "event"
    },
    {
      "anonymous": false,
      "inputs": [
        {
          "indexed": true,
          "internalType": "address",
          "name": "treasury",
          "type": "address"
        },
        {
          "indexed": false,
          "internalType": "uint256",
          "name": "amount",
          "type": "uint256"
        }
      ],
      "name": "TreasuryWithdrawal",
      "type": "event"
    },
    {
      "anonymous": false,
      "inputs": [
        {
          "indexed": true,
          "internalType": "address",
          "name": "implementation",
          "type": "address"
        }
      ],
      "name": "Upgraded",
      "type": "event"
    },
    {
      "inputs": [],
      "name": "DEFAULT_ADMIN_ROLE",
      "outputs": [
        {
          "internalType": "bytes32",
          "name": "",
          "type": "bytes32"
        }
      ],
      "stateMutability": "view",
      "type": "function"
    },
    {
      "inputs": [],
      "name": "ERC20_FACTORY_ROLE",
      "outputs": [
        {
          "internalType": "bytes32",
          "name": "",
          "type": "bytes32"
        }
      ],
      "stateMutability": "view",
      "type": "function"
    },
    {
      "inputs": [],
      "name": "MIN_SEND_GAS_LIMIT",
      "outputs": [
        {
          "internalType": "uint128",
          "name": "",
          "type": "uint128"
        }
      ],
      "stateMutability": "view",
      "type": "function"
    },
    {
      "inputs": [],
      "name": "PAUSER_ROLE",
      "outputs": [
        {
          "internalType": "bytes32",
          "name": "",
          "type": "bytes32"
        }
      ],
      "stateMutability": "view",
      "type": "function"
    },
    {
      "inputs": [],
      "name": "UPGRADER_ROLE",
      "outputs": [
        {
          "internalType": "bytes32",
          "name": "",
          "type": "bytes32"
        }
      ],
      "stateMutability": "view",
      "type": "function"
    },
    {
      "inputs": [],
      "name": "UPGRADE_INTERFACE_VERSION",
      "outputs": [
        {
          "internalType": "string",
          "name": "",
          "type": "string"
        }
      ],
      "stateMutability": "view",
      "type": "function"
    },
    {
      "inputs": [
        {
          "internalType": "address",
          "name": "_token",
          "type": "address"
        }
      ],
      "name": "addBridgeableToken",
      "outputs": [],
      "stateMutability": "nonpayable",
      "type": "function"
    },
    {
      "inputs": [
        {
          "internalType": "address",
          "name": "_signer",
          "type": "address"
        }
      ],
      "name": "addSigner",
      "outputs": [],
      "stateMutability": "nonpayable",
      "type": "function"
    },
    {
      "inputs": [
        {
          "components": [
            {
              "internalType": "uint32",
              "name": "srcEid",
              "type": "uint32"
            },
            {
              "internalType": "bytes32",
              "name": "sender",
              "type": "bytes32"
            },
            {
              "internalType": "uint64",
              "name": "nonce",
              "type": "uint64"
            }
          ],
          "internalType": "struct Origin",
          "name": "origin",
          "type": "tuple"
        }
      ],
      "name": "allowInitializePath",
      "outputs": [
        {
          "internalType": "bool",
          "name": "",
          "type": "bool"
        }
      ],
      "stateMutability": "view",
      "type": "function"
    },
    {
      "inputs": [
        {
          "components": [
            {
              "internalType": "uint32",
              "name": "srcEid",
              "type": "uint32"
            },
            {
              "internalType": "bytes32",
              "name": "sender",
              "type": "bytes32"
            },
            {
              "internalType": "uint64",
              "name": "nonce",
              "type": "uint64"
            }
          ],
          "internalType": "struct Origin",
          "name": "_origin",
          "type": "tuple"
        },
        {
          "internalType": "bytes32",
          "name": "_guid",
          "type": "bytes32"
        },
        {
          "internalType": "bytes",
          "name": "_message",
          "type": "bytes"
        }
      ],
      "name": "clearMessage",
      "outputs": [],
      "stateMutability": "nonpayable",
      "type": "function"
    },
    {
      "inputs": [],
      "name": "eip712Domain",
      "outputs": [
        {
          "internalType": "bytes1",
          "name": "fields",
          "type": "bytes1"
        },
        {
          "internalType": "string",
          "name": "name",
          "type": "string"
        },
        {
          "internalType": "string",
          "name": "version",
          "type": "string"
        },
        {
          "internalType": "uint256",
          "name": "chainId",
          "type": "uint256"
        },
        {
          "internalType": "address",
          "name": "verifyingContract",
          "type": "address"
        },
        {
          "internalType": "bytes32",
          "name": "salt",
          "type": "bytes32"
        },
        {
          "internalType": "uint256[]",
          "name": "extensions",
          "type": "uint256[]"
        }
      ],
      "stateMutability": "view",
      "type": "function"
    },
    {
      "inputs": [],
      "name": "endpoint",
      "outputs": [
        {
          "internalType": "contract ILayerZeroEndpointV2",
          "name": "",
          "type": "address"
        }
      ],
      "stateMutability": "view",
      "type": "function"
    },
    {
      "inputs": [],
      "name": "feeTreasury",
      "outputs": [
        {
          "internalType": "address",
          "name": "",
          "type": "address"
        }
      ],
      "stateMutability": "view",
      "type": "function"
    },
    {
      "inputs": [
        {
          "components": [
            {
              "internalType": "address",
              "name": "account",
              "type": "address"
            },
            {
              "internalType": "uint32",
              "name": "dstEid",
              "type": "uint32"
            },
            {
              "internalType": "address",
              "name": "srcContract",
              "type": "address"
            },
            {
              "internalType": "address",
              "name": "dstContract",
              "type": "address"
            },
            {
              "internalType": "uint256",
              "name": "fee",
              "type": "uint256"
            },
            {
              "internalType": "uint256",
              "name": "contractType",
              "type": "uint256"
            },
            {
              "internalType": "bytes",
              "name": "payload",
              "type": "bytes"
            },
            {
              "internalType": "bytes",
              "name": "lzOptions",
              "type": "bytes"
            },
            {
              "internalType": "string",
              "name": "comment",
              "type": "string"
            },
            {
              "components": [
                {
                  "internalType": "uint256",
                  "name": "deadline",
                  "type": "uint256"
                },
                {
                  "internalType": "bytes",
                  "name": "signature",
                  "type": "bytes"
                }
              ],
              "internalType": "struct ReforgeUpgradeable.Signature[]",
              "name": "signatures",
              "type": "tuple[]"
            }
          ],
          "internalType": "struct ReforgeUpgradeable.FurnaceParams",
          "name": "data",
          "type": "tuple"
        }
      ],
      "name": "furnace",
      "outputs": [],
      "stateMutability": "payable",
      "type": "function"
    },
    {
      "inputs": [],
      "name": "getFeeTreasury",
      "outputs": [
        {
          "internalType": "address",
          "name": "",
          "type": "address"
        }
      ],
      "stateMutability": "view",
      "type": "function"
    },
    {
      "inputs": [],
      "name": "getRequiredSignatures",
      "outputs": [
        {
          "internalType": "uint256",
          "name": "",
          "type": "uint256"
        }
      ],
      "stateMutability": "view",
      "type": "function"
    },
    {
      "inputs": [
        {
          "internalType": "bytes32",
          "name": "role",
          "type": "bytes32"
        }
      ],
      "name": "getRoleAdmin",
      "outputs": [
        {
          "internalType": "bytes32",
          "name": "",
          "type": "bytes32"
        }
      ],
      "stateMutability": "view",
      "type": "function"
    },
    {
      "inputs": [],
      "name": "getSendProtocolFee",
      "outputs": [
        {
          "internalType": "uint256",
          "name": "",
          "type": "uint256"
        }
      ],
      "stateMutability": "view",
      "type": "function"
    },
    {
      "inputs": [],
      "name": "getSigners",
      "outputs": [
        {
          "internalType": "address[]",
          "name": "",
          "type": "address[]"
        }
      ],
      "stateMutability": "view",
      "type": "function"
    },
    {
      "inputs": [
        {
          "internalType": "bytes32",
          "name": "role",
          "type": "bytes32"
        },
        {
          "internalType": "address",
          "name": "account",
          "type": "address"
        }
      ],
      "name": "grantRole",
      "outputs": [],
      "stateMutability": "nonpayable",
      "type": "function"
    },
    {
      "inputs": [
        {
          "internalType": "bytes32",
          "name": "role",
          "type": "bytes32"
        },
        {
          "internalType": "address",
          "name": "account",
          "type": "address"
        }
      ],
      "name": "hasRole",
      "outputs": [
        {
          "internalType": "bool",
          "name": "",
          "type": "bool"
        }
      ],
      "stateMutability": "view",
      "type": "function"
    },
    {
      "inputs": [],
      "name": "initialize",
      "outputs": [],
      "stateMutability": "nonpayable",
      "type": "function"
    },
    {
      "inputs": [
        {
          "internalType": "address",
          "name": "_token",
          "type": "address"
        }
      ],
      "name": "isBridgeableToken",
      "outputs": [
        {
          "internalType": "bool",
          "name": "",
          "type": "bool"
        }
      ],
      "stateMutability": "view",
      "type": "function"
    },
    {
      "inputs": [
        {
          "components": [
            {
              "internalType": "uint32",
              "name": "srcEid",
              "type": "uint32"
            },
            {
              "internalType": "bytes32",
              "name": "sender",
              "type": "bytes32"
            },
            {
              "internalType": "uint64",
              "name": "nonce",
              "type": "uint64"
            }
          ],
          "internalType": "struct Origin",
          "name": "",
          "type": "tuple"
        },
        {
          "internalType": "bytes",
          "name": "",
          "type": "bytes"
        },
        {
          "internalType": "address",
          "name": "_sender",
          "type": "address"
        }
      ],
      "name": "isComposeMsgSender",
      "outputs": [
        {
          "internalType": "bool",
          "name": "",
          "type": "bool"
        }
      ],
      "stateMutability": "view",
      "type": "function"
    },
    {
      "inputs": [
        {
          "components": [
            {
              "internalType": "address",
              "name": "account",
              "type": "address"
            },
            {
              "internalType": "uint32",
              "name": "dstEid",
              "type": "uint32"
            },
            {
              "internalType": "address",
              "name": "srcContract",
              "type": "address"
            },
            {
              "internalType": "address",
              "name": "dstContract",
              "type": "address"
            },
            {
              "internalType": "uint256",
              "name": "fee",
              "type": "uint256"
            },
            {
              "internalType": "uint256",
              "name": "contractType",
              "type": "uint256"
            },
            {
              "internalType": "bytes",
              "name": "payload",
              "type": "bytes"
            },
            {
              "internalType": "bytes",
              "name": "lzOptions",
              "type": "bytes"
            },
            {
              "internalType": "string",
              "name": "comment",
              "type": "string"
            },
            {
              "components": [
                {
                  "internalType": "uint256",
                  "name": "deadline",
                  "type": "uint256"
                },
                {
                  "internalType": "bytes",
                  "name": "signature",
                  "type": "bytes"
                }
              ],
              "internalType": "struct ReforgeUpgradeable.Signature[]",
              "name": "signatures",
              "type": "tuple[]"
            }
          ],
          "internalType": "struct ReforgeUpgradeable.FurnaceParams",
          "name": "data",
          "type": "tuple"
        }
      ],
      "name": "isFurnaceExecuted",
      "outputs": [
        {
          "internalType": "bool",
          "name": "",
          "type": "bool"
        }
      ],
      "stateMutability": "view",
      "type": "function"
    },
    {
      "inputs": [],
      "name": "isLzPaused",
      "outputs": [
        {
          "internalType": "bool",
          "name": "",
          "type": "bool"
        }
      ],
      "stateMutability": "view",
      "type": "function"
    },
    {
      "inputs": [
        {
          "internalType": "uint32",
          "name": "_eid",
          "type": "uint32"
        },
        {
          "internalType": "bytes32",
          "name": "_peer",
          "type": "bytes32"
        }
      ],
      "name": "isPeer",
      "outputs": [
        {
          "internalType": "bool",
          "name": "",
          "type": "bool"
        }
      ],
      "stateMutability": "view",
      "type": "function"
    },
    {
      "inputs": [],
      "name": "lzPaused",
      "outputs": [
        {
          "internalType": "bool",
          "name": "",
          "type": "bool"
        }
      ],
      "stateMutability": "view",
      "type": "function"
    },
    {
      "inputs": [
        {
          "components": [
            {
              "internalType": "uint32",
              "name": "srcEid",
              "type": "uint32"
            },
            {
              "internalType": "bytes32",
              "name": "sender",
              "type": "bytes32"
            },
            {
              "internalType": "uint64",
              "name": "nonce",
              "type": "uint64"
            }
          ],
          "internalType": "struct Origin",
          "name": "_origin",
          "type": "tuple"
        },
        {
          "internalType": "bytes32",
          "name": "_guid",
          "type": "bytes32"
        },
        {
          "internalType": "bytes",
          "name": "_message",
          "type": "bytes"
        },
        {
          "internalType": "address",
          "name": "_executor",
          "type": "address"
        },
        {
          "internalType": "bytes",
          "name": "_extraData",
          "type": "bytes"
        }
      ],
      "name": "lzReceive",
      "outputs": [],
      "stateMutability": "payable",
      "type": "function"
    },
    {
      "inputs": [
        {
          "internalType": "uint32",
          "name": "",
          "type": "uint32"
        },
        {
          "internalType": "bytes32",
          "name": "",
          "type": "bytes32"
        }
      ],
      "name": "nextNonce",
      "outputs": [
        {
          "internalType": "uint64",
          "name": "nonce",
          "type": "uint64"
        }
      ],
      "stateMutability": "view",
      "type": "function"
    },
    {
      "inputs": [],
      "name": "oAppVersion",
      "outputs": [
        {
          "internalType": "uint64",
          "name": "",
          "type": "uint64"
        },
        {
          "internalType": "uint64",
          "name": "",
          "type": "uint64"
        }
      ],
      "stateMutability": "pure",
      "type": "function"
    },
    {
      "inputs": [],
      "name": "owner",
      "outputs": [
        {
          "internalType": "address",
          "name": "",
          "type": "address"
        }
      ],
      "stateMutability": "view",
      "type": "function"
    },
    {
      "inputs": [
        {
          "internalType": "uint32",
          "name": "eid",
          "type": "uint32"
        }
      ],
      "name": "peers",
      "outputs": [
        {
          "internalType": "bytes32",
          "name": "peer",
          "type": "bytes32"
        }
      ],
      "stateMutability": "view",
      "type": "function"
    },
    {
      "inputs": [],
      "name": "proxiableUUID",
      "outputs": [
        {
          "internalType": "bytes32",
          "name": "",
          "type": "bytes32"
        }
      ],
      "stateMutability": "view",
      "type": "function"
    },
    {
      "inputs": [
        {
          "internalType": "uint32",
          "name": "dstEid",
          "type": "uint32"
        },
        {
          "internalType": "address",
          "name": "recipient",
          "type": "address"
        },
        {
          "internalType": "address",
          "name": "dstContract",
          "type": "address"
        },
        {
          "internalType": "bytes",
          "name": "payload",
          "type": "bytes"
        },
        {
          "internalType": "bytes",
          "name": "lzOptions",
          "type": "bytes"
        }
      ],
      "name": "quoteFurnace",
      "outputs": [
        {
          "internalType": "uint256",
          "name": "nativeFee",
          "type": "uint256"
        }
      ],
      "stateMutability": "view",
      "type": "function"
    },
    {
      "inputs": [
        {
          "internalType": "address",
          "name": "token",
          "type": "address"
        },
        {
          "internalType": "address",
          "name": "recipient",
          "type": "address"
        },
        {
          "internalType": "bytes",
          "name": "payload",
          "type": "bytes"
        },
        {
          "internalType": "uint32",
          "name": "dstEid",
          "type": "uint32"
        },
        {
          "internalType": "uint128",
          "name": "gasLimit",
          "type": "uint128"
        }
      ],
      "name": "quoteSend",
      "outputs": [
        {
          "internalType": "uint256",
          "name": "lzFee",
          "type": "uint256"
        },
        {
          "internalType": "uint256",
          "name": "protocolFee",
          "type": "uint256"
        }
      ],
      "stateMutability": "view",
      "type": "function"
    },
    {
      "inputs": [
        {
          "internalType": "address",
          "name": "_token",
          "type": "address"
        }
      ],
      "name": "removeBridgeableToken",
      "outputs": [],
      "stateMutability": "nonpayable",
      "type": "function"
    },
    {
      "inputs": [
        {
          "internalType": "address",
          "name": "_signer",
          "type": "address"
        }
      ],
      "name": "removeSigner",
      "outputs": [],
      "stateMutability": "nonpayable",
      "type": "function"
    },
    {
      "inputs": [],
      "name": "renounceOwnership",
      "outputs": [],
      "stateMutability": "nonpayable",
      "type": "function"
    },
    {
      "inputs": [
        {
          "internalType": "bytes32",
          "name": "role",
          "type": "bytes32"
        },
        {
          "internalType": "address",
          "name": "callerConfirmation",
          "type": "address"
        }
      ],
      "name": "renounceRole",
      "outputs": [],
      "stateMutability": "nonpayable",
      "type": "function"
    },
    {
      "inputs": [],
      "name": "requiredSignatures",
      "outputs": [
        {
          "internalType": "uint256",
          "name": "",
          "type": "uint256"
        }
      ],
      "stateMutability": "view",
      "type": "function"
    },
    {
      "inputs": [
        {
          "components": [
            {
              "internalType": "uint32",
              "name": "srcEid",
              "type": "uint32"
            },
            {
              "internalType": "bytes32",
              "name": "sender",
              "type": "bytes32"
            },
            {
              "internalType": "uint64",
              "name": "nonce",
              "type": "uint64"
            }
          ],
          "internalType": "struct Origin",
          "name": "_origin",
          "type": "tuple"
        },
        {
          "internalType": "bytes32",
          "name": "_guid",
          "type": "bytes32"
        },
        {
          "internalType": "bytes",
          "name": "_message",
          "type": "bytes"
        },
        {
          "internalType": "bytes",
          "name": "_extraData",
          "type": "bytes"
        }
      ],
      "name": "retryMessage",
      "outputs": [],
      "stateMutability": "payable",
      "type": "function"
    },
    {
      "inputs": [
        {
          "internalType": "bytes32",
          "name": "role",
          "type": "bytes32"
        },
        {
          "internalType": "address",
          "name": "account",
          "type": "address"
        }
      ],
      "name": "revokeRole",
      "outputs": [],
      "stateMutability": "nonpayable",
      "type": "function"
    },
    {
      "inputs": [
        {
          "components": [
            {
              "internalType": "address",
              "name": "token",
              "type": "address"
            },
            {
              "internalType": "uint32",
              "name": "dstEid",
              "type": "uint32"
            },
            {
              "internalType": "address",
              "name": "recipient",
              "type": "address"
            },
            {
              "internalType": "uint128",
              "name": "gasLimit",
              "type": "uint128"
            },
            {
              "internalType": "bytes",
              "name": "payload",
              "type": "bytes"
            }
          ],
          "internalType": "struct ReforgeUpgradeable.SendParams",
          "name": "params",
          "type": "tuple"
        }
      ],
      "name": "send",
      "outputs": [],
      "stateMutability": "payable",
      "type": "function"
    },
    {
      "inputs": [],
      "name": "sendProtocolFee",
      "outputs": [
        {
          "internalType": "uint256",
          "name": "",
          "type": "uint256"
        }
      ],
      "stateMutability": "view",
      "type": "function"
    },
    {
      "inputs": [
        {
          "components": [
            {
              "internalType": "address",
              "name": "token",
              "type": "address"
            },
            {
              "internalType": "uint32",
              "name": "dstEid",
              "type": "uint32"
            },
            {
              "internalType": "address",
              "name": "recipient",
              "type": "address"
            },
            {
              "internalType": "uint128",
              "name": "gasLimit",
              "type": "uint128"
            },
            {
              "internalType": "bytes",
              "name": "payload",
              "type": "bytes"
            }
          ],
          "internalType": "struct ReforgeUpgradeable.SendParams",
          "name": "params",
          "type": "tuple"
        },
        {
          "components": [
            {
              "internalType": "uint256",
              "name": "deadline",
              "type": "uint256"
            },
            {
              "internalType": "uint8",
              "name": "v",
              "type": "uint8"
            },
            {
              "internalType": "bytes32",
              "name": "r",
              "type": "bytes32"
            },
            {
              "internalType": "bytes32",
              "name": "s",
              "type": "bytes32"
            }
          ],
          "internalType": "struct ReforgeUpgradeable.PermitParams",
          "name": "permit",
          "type": "tuple"
        }
      ],
      "name": "sendWithPermit",
      "outputs": [],
      "stateMutability": "payable",
      "type": "function"
    },
    {
      "inputs": [
        {
          "internalType": "address",
          "name": "_delegate",
          "type": "address"
        }
      ],
      "name": "setDelegate",
      "outputs": [],
      "stateMutability": "nonpayable",
      "type": "function"
    },
    {
      "inputs": [
        {
          "internalType": "address",
          "name": "_treasury",
          "type": "address"
        }
      ],
      "name": "setFeeTreasury",
      "outputs": [],
      "stateMutability": "nonpayable",
      "type": "function"
    },
    {
      "inputs": [
        {
          "internalType": "bool",
          "name": "_paused",
          "type": "bool"
        }
      ],
      "name": "setLzPaused",
      "outputs": [],
      "stateMutability": "nonpayable",
      "type": "function"
    },
    {
      "inputs": [
        {
          "internalType": "uint32",
          "name": "_eid",
          "type": "uint32"
        },
        {
          "internalType": "bytes32",
          "name": "_peer",
          "type": "bytes32"
        }
      ],
      "name": "setPeer",
      "outputs": [],
      "stateMutability": "nonpayable",
      "type": "function"
    },
    {
      "inputs": [
        {
          "internalType": "uint256",
          "name": "_required",
          "type": "uint256"
        }
      ],
      "name": "setRequiredSignatures",
      "outputs": [],
      "stateMutability": "nonpayable",
      "type": "function"
    },
    {
      "inputs": [
        {
          "internalType": "uint256",
          "name": "_fee",
          "type": "uint256"
        }
      ],
      "name": "setSendProtocolFee",
      "outputs": [],
      "stateMutability": "nonpayable",
      "type": "function"
    },
    {
      "inputs": [],
      "name": "signers",
      "outputs": [
        {
          "internalType": "address[]",
          "name": "",
          "type": "address[]"
        }
      ],
      "stateMutability": "view",
      "type": "function"
    },
    {
      "inputs": [
        {
          "internalType": "bytes4",
          "name": "interfaceId",
          "type": "bytes4"
        }
      ],
      "name": "supportsInterface",
      "outputs": [
        {
          "internalType": "bool",
          "name": "",
          "type": "bool"
        }
      ],
      "stateMutability": "view",
      "type": "function"
    },
    {
      "inputs": [
        {
          "internalType": "address",
          "name": "newOwner",
          "type": "address"
        }
      ],
      "name": "transferOwnership",
      "outputs": [],
      "stateMutability": "nonpayable",
      "type": "function"
    },
    {
      "inputs": [
        {
          "internalType": "address",
          "name": "newImplementation",
          "type": "address"
        },
        {
          "internalType": "bytes",
          "name": "data",
          "type": "bytes"
        }
      ],
      "name": "upgradeToAndCall",
      "outputs": [],
      "stateMutability": "payable",
      "type": "function"
    },
    {
      "inputs": [],
      "name": "withdrawToTreasury",
      "outputs": [],
      "stateMutability": "nonpayable",
      "type": "function"
    },
    {
      "stateMutability": "payable",
      "type": "receive"
    }
  ],
  "bytecode": "0x60c06040523060805234801561001457600080fd5b506040516155c63803806155c68339810160408190526100339161020d565b80338181808061005d57604051631e4fbdf760e01b81526000600482015260240160405180910390fd5b6100668161010b565b506001600160a01b0380831660a052811661009457604051632d618d8160e21b815260040160405180910390fd5b60a05160405163ca5eb5e160e01b81526001600160a01b0383811660048301529091169063ca5eb5e190602401600060405180830381600087803b1580156100db57600080fd5b505af11580156100ef573d6000803e3d6000fd5b505050505050505061010561015b60201b60201c565b5061023d565b600080546001600160a01b038381166001600160a01b0319831681178455604051919092169283917f8be0079c531659141344cd1fd0a4f28419497f9722a3daafe3b4186f6b6457e09190a35050565b7ff0c57e16840df040f15088dc2f81fe391c3923bec73e23a9662efc9c229c6a00805468010000000000000000900460ff16156101ab5760405163f92ee8a960e01b815260040160405180910390fd5b80546001600160401b039081161461020a5780546001600160401b0319166001600160401b0390811782556040519081527fc7f505b2f371ae2175ee4913f4499e1f2633a7b5936321eed1cdaeb6115181d29060200160405180910390a15b50565b60006020828403121561021f57600080fd5b81516001600160a01b038116811461023657600080fd5b9392505050565b60805160a05161531e6102a8600039600081816105d101528181610b3d01528181610bcd0152818161107b01528181611c9d0152818161231901528181612cac0152818161383b01526138f40152600081816123ef0152818161241801526125be015261531e6000f3fe60806040526004361061037a5760003560e01c806382413eac116101d1578063bb0b6a5311610102578063e63ab1e9116100a0578063f2fde38b1161006f578063f2fde38b14610a3c578063f3143f7414610a5c578063f72c0d8b14610a90578063ff7bd03d14610ac457600080fd5b8063e63ab1e9146109a4578063e822a074146109d8578063e9555a7a14610a07578063eb12d61e14610a1c57600080fd5b8063ca5eb5e1116100dc578063ca5eb5e11461093a578063ccd939981461095a578063d0ab47411461096f578063d547741f1461098457600080fd5b8063bb0b6a53146108cd578063bfa37e37146108fa578063bfb567c91461091a57600080fd5b8063927e936c1161016f578063a850568f11610149578063a850568f1461083c578063ad3cb1cc1461085c578063b6c065581461089a578063baca3b7d146108ba57600080fd5b8063927e936c146107f257806394cf795e14610812578063a217fddf1461082757600080fd5b80638d068043116101ab5780638d0680431461078a5780638da5cb5b1461079f5780638e5f4083146107bd57806391d14854146107d257600080fd5b806382413eac1461071357806384b0196e146107425780638c6ad07b1461076a57600080fd5b8063525d8a7f116102ab57806361e67c2b116102495780637d25a05e116102235780637d25a05e1461068e5780637d2b9cc0146106c95780637e80c186146106e95780638129fc1c146106fe57600080fd5b806361e67c2b1461064657806366044aa414610659578063715018a61461067957600080fd5b80635e280f11116102855780635e280f11146105bf57806360da33991461060b57806360dc23401461061e57806361d801db1461063357600080fd5b8063525d8a7f1461055357806352d1902d146105735780635a0dfe4d1461058857600080fd5b80632d40b1171161031857806336568abe116102f257806336568abe146104c957806341536992146104e957806346f0975a1461051e5780634f1ef2861461054057600080fd5b80632d40b117146104745780632f2ff15d146104895780633400288b146104a957600080fd5b806313137d651161035457806313137d65146103fd57806317442b7014610410578063248a9ca31461043157806328fdcfa81461045f57600080fd5b806301ffc9a7146103865780630a96997d146103bb5780630e316ab7146103dd57600080fd5b3661038157005b600080fd5b34801561039257600080fd5b506103a66103a1366004614020565b610ae4565b60405190151581526020015b60405180910390f35b3480156103c757600080fd5b506103db6103d63660046140aa565b610b1b565b005b3480156103e957600080fd5b506103db6103f8366004614129565b610bb3565b6103db61040b366004614146565b610bcb565b34801561041c57600080fd5b506040805160018082526020820152016103b2565b34801561043d57600080fd5b5061045161044c3660046141e7565b610c8b565b6040519081526020016103b2565b34801561046b57600080fd5b50610451610cad565b34801561048057600080fd5b50610451610cc0565b34801561049557600080fd5b506103db6104a4366004614200565b610ccf565b3480156104b557600080fd5b506103db6104c4366004614244565b610cf1565b3480156104d557600080fd5b506103db6104e4366004614200565b610d0b565b3480156104f557600080fd5b50610509610504366004614285565b610d3e565b604080519283526020830191909152016103b2565b34801561052a57600080fd5b50610533610dd2565b6040516103b2919061430d565b6103db61054e366004614460565b610ddc565b34801561055f57600080fd5b506103db61056e3660046141e7565b610df7565b34801561057f57600080fd5b50610451610e0b565b34801561059457600080fd5b506103a66105a3366004614244565b63ffffffff919091166000908152600160205260409020541490565b3480156105cb57600080fd5b506105f37f000000000000000000000000000000000000000000000000000000000000000081565b6040516001600160a01b0390911681526020016103b2565b6103db6106193660046144c1565b610e28565b34801561062a57600080fd5b506105f361105a565b6103db61064136600461451a565b611064565b6103db61065436600461468c565b6110f8565b34801561066557600080fd5b506103db610674366004614129565b611502565b34801561068557600080fd5b506103db611535565b34801561069a57600080fd5b506106b16106a9366004614244565b600092915050565b6040516001600160401b0390911681526020016103b2565b3480156106d557600080fd5b506103db6106e43660046141e7565b611549565b3480156106f557600080fd5b506103db61155d565b34801561070a57600080fd5b506103db6115e8565b34801561071f57600080fd5b506103a661072e3660046147d9565b6001600160a01b0381163014949350505050565b34801561074e57600080fd5b50610757611801565b6040516103b2979695949392919061488f565b34801561077657600080fd5b506103db610785366004614129565b6118ad565b34801561079657600080fd5b506104516118c1565b3480156107ab57600080fd5b506000546001600160a01b03166105f3565b3480156107c957600080fd5b506103a66118cb565b3480156107de57600080fd5b506103a66107ed366004614200565b6118e8565b3480156107fe57600080fd5b5061045161080d366004614927565b611920565b34801561081e57600080fd5b5061053361199b565b34801561083357600080fd5b50610451600081565b34801561084857600080fd5b506103a661085736600461468c565b611a00565b34801561086857600080fd5b5061088d604051806040016040528060058152602001640352e302e360dc1b81525081565b6040516103b291906149b1565b3480156108a657600080fd5b506103a66108b5366004614129565b611a95565b6103db6108c83660046149c4565b611aa0565b3480156108d957600080fd5b506104516108e8366004614a00565b60016020526000908152604090205481565b34801561090657600080fd5b506103db610915366004614129565b611bfb565b34801561092657600080fd5b506103db610935366004614a29565b611c0f565b34801561094657600080fd5b506103db610955366004614129565b611c76565b34801561096657600080fd5b50610451611cf5565b34801561097b57600080fd5b506105f3611d08565b34801561099057600080fd5b506103db61099f366004614200565b611d24565b3480156109b057600080fd5b506104517f65d7a28e3265b37a6474929f336521b332c1681b933f6cb9f3376673440d862a81565b3480156109e457600080fd5b506109ef620186a081565b6040516001600160801b0390911681526020016103b2565b348015610a1357600080fd5b506103a6611d40565b348015610a2857600080fd5b506103db610a37366004614129565b611d4a565b348015610a4857600080fd5b506103db610a57366004614129565b611d5e565b348015610a6857600080fd5b506104517f1f1abfbbf851414d98973063438ae26506090b3f47bb7d15da51ed540a69b73c81565b348015610a9c57600080fd5b506104517f189ab7a9244df0848122154315af71fe140f3db0fe014031783b0946b8c9d2e381565b348015610ad057600080fd5b506103a6610adf366004614a46565b611d99565b60006001600160e01b03198216637965db0b60e01b1480610b1557506301ffc9a760e01b6001600160e01b03198316145b92915050565b6000610b2681611dcf565b6040516302a56c1b60e41b81526001600160a01b037f00000000000000000000000000000000000000000000000000000000000000001690632a56c1b090610b7a9030908990899089908990600401614add565b600060405180830381600087803b158015610b9457600080fd5b505af1158015610ba8573d6000803e3d6000fd5b505050505050505050565b6000610bbe81611dcf565b610bc782611dd9565b5050565b7f00000000000000000000000000000000000000000000000000000000000000006001600160a01b03163314610c1b576040516391ac5e4f60e01b81523360048201526024015b60405180910390fd5b60208701803590610c3590610c30908a614a00565b611f28565b14610c7357610c476020880188614a00565b60405163309afaf360e21b815263ffffffff909116600482015260208801356024820152604401610c12565b610c8287878787878787611f64565b50505050505050565b60009081526000805160206152a9833981519152602052604090206001015490565b6000610cb7612100565b60050154905090565b6000610cca610cad565b905090565b610cd882610c8b565b610ce181611dcf565b610ceb8383612124565b50505050565b6000610cfc81611dcf565b610d0683836121c9565b505050565b6001600160a01b0381163314610d345760405163334bd91960e11b815260040160405180910390fd5b610d06828261221f565b600080600080888a8989604051602001610d5c959493929190614b13565b60405160208183030381529060405290506000610da2856000610d9b60408051600360f01b602082015281516002818303018152602290910190915290565b919061229b565b90506000610db38784846000612303565b8051909150610dc0610cad565b94509450505050965096945050505050565b6060610cca61199b565b610de46123e4565b610ded82612489565b610bc782826124b3565b6000610e0281611dcf565b610bc782612570565b6000610e156125b3565b5060008051602061528983398151915290565b610e306118cb565b15610e4e57604051633b769e0360e21b815260040160405180910390fd5b610e566125fc565b6000610e656020840184614129565b6001600160a01b031603610e8c5760405163d92e233d60e01b815260040160405180910390fd5b6000610e9e6060840160408501614129565b6001600160a01b031603610ec55760405163d92e233d60e01b815260040160405180910390fd5b610ed26080830183614b49565b9050600003610ef457604051631f2a200560e01b815260040160405180910390fd5b6000600181610f096040860160208701614a00565b63ffffffff1663ffffffff1681526020019081526020016000205403610f42576040516316ecbaf360e21b815260040160405180910390fd5b610f57610f526020840184614129565b612634565b610f8d57610f686020830183614129565b604051638cae18f160e01b81526001600160a01b039091166004820152602401610c12565b6000610f9c6080840184614b49565b810190610fa991906141e7565b9050610fb86020840184614129565b6001600160a01b031663d505accf3330848635610fdb6040890160208a01614ba0565b886040013589606001356040518863ffffffff1660e01b81526004016110079796959493929190614bbb565b600060405180830381600087803b15801561102157600080fd5b505af1158015611035573d6000803e3d6000fd5b5050505061104283612663565b50610bc760016000805160206152c983398151915255565b6000610cca611d08565b6040516306061c4f60e11b81526001600160a01b037f00000000000000000000000000000000000000000000000000000000000000001690630c0c389e9034906110be908a9030908b908b908b908b908b90600401614bfc565b6000604051808303818588803b1580156110d757600080fd5b505af11580156110eb573d6000803e3d6000fd5b5050505050505050505050565b6111006118cb565b1561111e57604051633b769e0360e21b815260040160405180910390fd5b6111266125fc565b60408101516001600160a01b03166111515760405163d92e233d60e01b815260040160405180910390fd5b60608101516001600160a01b031661117c5760405163d92e233d60e01b815260040160405180910390fd5b60208082015163ffffffff166000908152600190915260409020546111b4576040516316ecbaf360e21b815260040160405180910390fd5b6111bd8161294e565b50600061122b8261012001516000815181106111db576111db614c52565b6020026020010151602001516040805160608082018352600080835260208084018290529284018190528483015185850151958301518551938401865290835292820194909452921a9082015290565b905060008260c001518060200190518101906112479190614c68565b905082604001516001600160a01b031663d505accf8460000151308487610120015160008151811061127b5761127b614c52565b6020026020010151600001518760400151886000015189602001516040518863ffffffff1660e01b81526004016112b89796959493929190614bbb565b600060405180830381600087803b1580156112d257600080fd5b505af11580156112e6573d6000803e3d6000fd5b505050604080850151855160c0870151925163317480c560e21b81526001600160a01b03909216955063c5d20314945061132593509190600401614c81565b6020604051808303816000875af1158015611344573d6000803e3d6000fd5b505050506040513d601f19601f820116820180604052508101906113689190614ca5565b506080810151156113b657600061137d611d08565b90506001600160a01b0381166113a65760405163d92e233d60e01b815260040160405180910390fd5b6113b4818360800151612be9565b505b60006001826000015183606001518460c001516040516020016113dc9493929190614cc2565b604051602081830303815290604052905060006114048360200151838560e001516000612303565b6080840151815191925061141791614d0d565b3410156114525760808301518151349161143091614d0d565b60405163a458261b60e01b815260048101929092526024820152604401610c12565b60006114828460200151848660e00151604051806040016040528087600001518152602001600081525033612c79565b84516020860151604080880151606089015160c08a0151865193519697506001600160a01b039095169586957f1a762fc103a0acd2dde359957045df548e6bfa8bf89c598014d8daaf52c8e3d3956114dd9590949392614d20565b60405180910390a35050506114ff60016000805160206152c983398151915255565b50565b7f1f1abfbbf851414d98973063438ae26506090b3f47bb7d15da51ed540a69b73c61152c81611dcf565b610bc782612d84565b61153d612e4e565b6115476000612e7b565b565b600061155481611dcf565b610bc782612ecb565b6000611567611d08565b90506001600160a01b0381166115905760405163d92e233d60e01b815260040160405180910390fd5b478015610bc7576115a18282612be9565b816001600160a01b03167f233c84dc0c19fbf51f9fa92214ffd8a59f512e0098bff5827455d02e401221c0826040516115dc91815260200190565b60405180910390a25050565b60006115f2612f47565b805490915060ff600160401b82041615906001600160401b03166000811580156116195750825b90506000826001600160401b031660011480156116355750303b155b905081158015611643575080155b156116615760405163f92ee8a960e01b815260040160405180910390fd5b845467ffffffffffffffff19166001178555831561168b57845460ff60401b1916600160401b1785555b604080516001808252818301909252735c408d30e2553baa29a0517ee13dc63783f795b091600091906020808301908036833701905050905081816000815181106116d8576116d8614c52565b6001600160a01b039092166020928302919091019091015273be35035bbc968cfc28cf7f6359d3223f7837544561170d612f70565b611715612f70565b61171d612f78565b61174f6040518060400160405280600f81526020016e20a92cad2290262d102937baba32b960891b8152508383612f88565b61175a600084612124565b506117857f189ab7a9244df0848122154315af71fe140f3db0fe014031783b0946b8c9d2e384612124565b506117b07f65d7a28e3265b37a6474929f336521b332c1681b933f6cb9f3376673440d862a84612124565b5050505083156117fa57845460ff60401b19168555604051600181527fc7f505b2f371ae2175ee4913f4499e1f2633a7b5936321eed1cdaeb6115181d29060200160405180910390a15b5050505050565b60006060808280808381600080516020615269833981519152805490915015801561182e57506001810154155b6118725760405162461bcd60e51b81526020600482015260156024820152741152540dcc4c8e88155b9a5b9a5d1a585b1a5e9959605a1b6044820152606401610c12565b61187a612fbd565b611882613080565b60408051600080825260208201909252600f60f81b9c939b5091995046985030975095509350915050565b60006118b881611dcf565b610bc7826130bf565b6000610cca611cf5565b60006118d5612100565b60030154600160a01b900460ff16919050565b60009182526000805160206152a9833981519152602090815260408084206001600160a01b0393909316845291905290205460ff1690565b60008060018888888860405160200161193d959493929190614b13565b60408051601f198184030181526020601f8701819004810284018101909252858352925060009161198c918c918591899089908190840183828082843760009201829052509250612303915050565b519a9950505050505050505050565b60606119a5612100565b8054604080516020808402820181019092528281529291908301828280156119f657602002820191906000526020600020905b81546001600160a01b031681526001909101906020018083116119d8575b5050505050905090565b600080611a0b612100565b60c0840151805160209182012060e086015180519083012061010087015180519301929092209293509160005b86610120015151811015611a88576000611a55828987878761315e565b600081815260028801602052604090205490915060ff1615611a7f57506001979650505050505050565b50600101611a38565b5060009695505050505050565b6000610b1582612634565b611aa86118cb565b15611ac657604051633b769e0360e21b815260040160405180910390fd5b611ace6125fc565b6000611add6020830183614129565b6001600160a01b031603611b045760405163d92e233d60e01b815260040160405180910390fd5b6000611b166060830160408401614129565b6001600160a01b031603611b3d5760405163d92e233d60e01b815260040160405180910390fd5b611b4a6080820182614b49565b9050600003611b6c57604051631f2a200560e01b815260040160405180910390fd5b6000600181611b816040850160208601614a00565b63ffffffff1663ffffffff1681526020019081526020016000205403611bba576040516316ecbaf360e21b815260040160405180910390fd5b611bca610f526020830183614129565b611bdb57610f686020820182614129565b611be481612663565b6114ff60016000805160206152c983398151915255565b6000611c0681611dcf565b610bc782613262565b7f65d7a28e3265b37a6474929f336521b332c1681b933f6cb9f3376673440d862a611c3981611dcf565b611c42826132df565b604051821515815233907ff48abd119fd16824921f68eac7a4b07e2474cf48ccc3a28f2da771e4b5d64df9906020016115dc565b611c7e612e4e565b60405163ca5eb5e160e01b81526001600160a01b0382811660048301527f0000000000000000000000000000000000000000000000000000000000000000169063ca5eb5e190602401600060405180830381600087803b158015611ce157600080fd5b505af11580156117fa573d6000803e3d6000fd5b6000611cff612100565b60010154905090565b6000611d12612100565b600301546001600160a01b0316919050565b611d2d82610c8b565b611d3681611dcf565b610ceb838361221f565b6000610cca6118cb565b6000611d5581611dcf565b610bc782613308565b611d66612e4e565b6001600160a01b038116611d9057604051631e4fbdf760e01b815260006004820152602401610c12565b6114ff81612e7b565b6000602082018035906001908390611db19086614a00565b63ffffffff1681526020810191909152604001600020541492915050565b6114ff8133613448565b6000611de3612100565b905060005b8154811015610d0657826001600160a01b0316826000018281548110611e1057611e10614c52565b6000918252602090912001546001600160a01b031603611f205781548290611e3a90600190614d6a565b81548110611e4a57611e4a614c52565b60009182526020909120015482546001600160a01b0390911690839083908110611e7657611e76614c52565b600091825260209091200180546001600160a01b0319166001600160a01b03929092169190911790558154829080611eb057611eb0614d7d565b600082815260209020810160001990810180546001600160a01b0319169055019055815460018301541115611ee757815460018301555b6040516001600160a01b038416907f3525e22824a8a7df2c9a6029941c824cf95b6447f1e13d5128fd3826d35afe8b90600090a2505050565b600101611de8565b63ffffffff811660009081526001602052604081205480610b155760405163f6ff4fb760e01b815263ffffffff84166004820152602401610c12565b611f6c6118cb565b15611f8a57604051633b769e0360e21b815260040160405180910390fd5b60208701803590600190600090611fa1908b614a00565b63ffffffff1663ffffffff1681526020019081526020016000205414611fda576040516316ecbaf360e21b815260040160405180910390fd5b6000808080611feb888a018a614d93565b9296509094509250905060ff841661202e5761200682612634565b61202e57604051638cae18f160e01b81526001600160a01b0383166004820152602401610c12565b604051631ae8e73b60e31b81526001600160a01b0383169063d74739d89061205c9086908590600401614c81565b6020604051808303816000875af115801561207b573d6000803e3d6000fd5b505050506040513d601f19601f8201168201806040525081019061209f9190614ca5565b506001600160a01b0383167f9c60fb0fe55d0b39d2736ef6dbb71f140f6b4ed7a92bfd1a8f2d1aec3dd9fe036120d860208e018e614a00565b84848e6040516120eb9493929190614e05565b60405180910390a25050505050505050505050565b7f8a0c9d8ec1d9f8b4c5e1f2a3b4c5d6e7f8a9b0c1d2e3f4a5b6c7d8e9f0a1b20090565b60006000805160206152a983398151915261213f84846118e8565b6121bf576000848152602082815260408083206001600160a01b03871684529091529020805460ff191660011790556121753390565b6001600160a01b0316836001600160a01b0316857f2f8788117e7eff1d82e926ec794901d17c78024a50270940304540a733656f0d60405160405180910390a46001915050610b15565b6000915050610b15565b63ffffffff8216600081815260016020908152604091829020849055815192835282018390527f238399d427b947898edb290f5ff0f9109849b1c3ba196a42e35f00c50a54b98b91015b60405180910390a15050565b60006000805160206152a983398151915261223a84846118e8565b156121bf576000848152602082815260408083206001600160a01b0387168085529252808320805460ff1916905551339287917ff6391f5c32d9c69d2a47ea670b442974b53935d1edc7fd64eb21e047a839171b9190a46001915050610b15565b60608360036122ab826000613481565b61ffff16146122df576122bf816000613481565b604051633a51740d60e01b815261ffff9091166004820152602401610c12565b60006122eb85856134de565b90506122f986600183613557565b9695505050505050565b60408051808201909152600080825260208201527f00000000000000000000000000000000000000000000000000000000000000006001600160a01b031663ddc28c586040518060a001604052808863ffffffff16815260200161236689611f28565b8152602001878152602001868152602001851515815250306040518363ffffffff1660e01b815260040161239b929190614e46565b6040805180830381865afa1580156123b7573d6000803e3d6000fd5b505050506040513d601f19601f820116820180604052508101906123db9190614ef0565b95945050505050565b306001600160a01b037f000000000000000000000000000000000000000000000000000000000000000016148061246b57507f00000000000000000000000000000000000000000000000000000000000000006001600160a01b031661245f600080516020615289833981519152546001600160a01b031690565b6001600160a01b031614155b156115475760405163703e46dd60e11b815260040160405180910390fd5b7f189ab7a9244df0848122154315af71fe140f3db0fe014031783b0946b8c9d2e3610bc781611dcf565b816001600160a01b03166352d1902d6040518163ffffffff1660e01b8152600401602060405180830381865afa92505050801561250d575060408051601f3d908101601f1916820190925261250a91810190614c68565b60015b61253557604051634c9c8ce360e01b81526001600160a01b0383166004820152602401610c12565b600080516020615289833981519152811461256657604051632a87526960e21b815260048101829052602401610c12565b610d0683836135c2565b80612579612100565b600501556040518181527fec608385e8cfcfe4f505adbf5af10f60af5f3f963fe406de9206918eaebfe0e29060200160405180910390a150565b306001600160a01b037f000000000000000000000000000000000000000000000000000000000000000016146115475760405163703e46dd60e11b815260040160405180910390fd5b6000805160206152c983398151915280546001190161262e57604051633ee5aeb560e01b815260040160405180910390fd5b60029055565b600061263e612100565b6001600160a01b03909216600090815260049290920160205250604090205460ff1690565b620186a06126776080830160608401614f0c565b6001600160801b031610156126c4576126966080820160608301614f0c565b60405163528c63f960e11b81526001600160801b039091166004820152620186a06024820152604401610c12565b6126d16020820182614129565b6001600160a01b031663c5d20314336126ed6080850185614b49565b6040518463ffffffff1660e01b815260040161270b93929190614f27565b6020604051808303816000875af115801561272a573d6000803e3d6000fd5b505050506040513d601f19601f8201168201806040525081019061274e9190614ca5565b506000806127626060840160408501614129565b61276f6020850185614129565b61277c6080860186614b49565b604051602001612790959493929190614b13565b60408051601f19818403018152919052905060006127df6127b76080850160608601614f0c565b6000610d9b60408051600360f01b602082015281516002818303018152602290910190915290565b905060006127ff6127f66040860160208701614a00565b84846000612303565b9050600061280b610cad565b9050600081836000015161281f9190614d0d565b90508034101561284b5760405163a458261b60e01b815234600482015260248101829052604401610c12565b60006128578234614d6a565b90508015612869576128693382612be9565b60006128a061287e60408a0160208b01614a00565b888860405180604001604052808a600001518152602001600081525033612c79565b90506128b26060890160408a01614129565b6001600160a01b0316337f1a762fc103a0acd2dde359957045df548e6bfa8bf89c598014d8daaf52c8e3d36128ed60408c0160208d01614a00565b6128fa60208d018d614129565b61290760208e018e614129565b61291460808f018f614b49565b885160405161292896959493929190614f4c565b60405180910390a35050505050505050565b60016000805160206152c983398151915255565b600061295982611a00565b1561297757604051631f1596e360e11b815260040160405180910390fd5b60008260c0015180519060200120905060008360e0015180519060200120905060008461012001516000815181106129b1576129b1614c52565b602002602001015160200151805190602001209050600085610100015180519060200120905060006129e1612100565b805490915060009081906001600160401b03811115612a0257612a02614359565b604051908082528060200260200182016040528015612a2b578160200160208202803683370190505b50905060015b8961012001515181108015612a495750836001015483105b15612b9c578961012001518181518110612a6557612a65614c52565b6020026020010151600001514211612b8c576000612aa98b8c61012001518481518110612a9457612a94614c52565b6020026020010151600001518b8b8b8b613618565b90506000612ae1612ab983613703565b8d61012001518581518110612ad057612ad0614c52565b602002602001015160200151613730565b905060005b8654811015612b8857816001600160a01b0316876000018281548110612b0e57612b0e614c52565b6000918252602090912001546001600160a01b0316148015612b475750848181518110612b3d57612b3d614c52565b6020026020010151155b15612b80576001858281518110612b6057612b60614c52565b91151560209283029190910190910152612b7986614f98565b9550612b88565b600101612ae6565b5050505b612b9581614f98565b9050612a31565b50612ba68961375a565b8260010154821015612bda5760018301546040516267780360e71b8152610c12918491600401918252602082015260400190565b50600198975050505050505050565b80471015612c135760405163cf47918160e01b815247600482015260248101829052604401610c12565b600080836001600160a01b03168360405160006040518083038185875af1925050503d8060008114612c61576040519150601f19603f3d011682016040523d82523d6000602084013e612c66565b606091505b509150915081610ceb57610ceb816137df565b612c81613fd9565b6000612c908460000151613807565b602085015190915015612caa57612caa8460200151613837565b7f00000000000000000000000000000000000000000000000000000000000000006001600160a01b0316632637a450826040518060a001604052808b63ffffffff168152602001612cfa8c611f28565b81526020018a815260200189815260200160008960200151111515815250866040518463ffffffff1660e01b8152600401612d36929190614e46565b60806040518083038185885af1158015612d54573d6000803e3d6000fd5b50505050506040513d601f19601f82011682018060405250810190612d799190614fb1565b979650505050505050565b6001600160a01b038116612dab5760405163d92e233d60e01b815260040160405180910390fd5b6000612db5612100565b6001600160a01b038316600090815260048201602052604090205490915060ff1615612dff576040516315e10dcb60e21b81526001600160a01b0383166004820152602401610c12565b6001600160a01b0382166000818152600483016020526040808220805460ff19166001179055517f665c44d9d2989f53fe582d47ed1ebeb9fa2977d582af6b64a983a9676ccc40759190a25050565b6000546001600160a01b031633146115475760405163118cdaa760e01b8152336004820152602401610c12565b600080546001600160a01b038381166001600160a01b0319831681178455604051919092169283917f8be0079c531659141344cd1fd0a4f28419497f9722a3daafe3b4186f6b6457e09190a35050565b6000612ed5612100565b8054909150612ee583600261501a565b111580612ef25750805482115b15612f105760405163458bb42160e01b815260040160405180910390fd5b600181018290556040518281527f2d465bb3608d42a9f6601f7adf1e33540314b62582a6cd3e329dd32ff8b5d19590602001612213565b6000807ff0c57e16840df040f15088dc2f81fe391c3923bec73e23a9662efc9c229c6a00610b15565b611547613919565b612f80613919565b61154761393e565b612f90613919565b612fb383604051806040016040528060018152602001603160f81b815250613946565b610d068282613958565b7fa16a46d94261c7517cc8ff89f61c0ce93598e3c849801011dee649a6a557d102805460609160008051602061526983398151915291612ffc90615031565b80601f016020809104026020016040519081016040528092919081815260200182805461302890615031565b80156130755780601f1061304a57610100808354040283529160200191613075565b820191906000526020600020905b81548152906001019060200180831161305857829003601f168201915b505050505091505090565b7fa16a46d94261c7517cc8ff89f61c0ce93598e3c849801011dee649a6a557d103805460609160008051602061526983398151915291612ffc90615031565b60006130c9612100565b6001600160a01b038316600090815260048201602052604090205490915060ff1661311257604051638cae18f160e01b81526001600160a01b0383166004820152602401610c12565b6001600160a01b0382166000818152600483016020526040808220805460ff19169055517f0a70df451873dd9a526ed126da5d4e5687f3fcbce8b66c1de3ce635c2329b9419190a25050565b6000846101200151868151811061317757613177614c52565b6020026020010151602001518051906020012085610120015187815181106131a1576131a1614c52565b60209081029190910181015151875160808901516040808b01518b8601516060808e015160a08f01518551998a019a909a52938801969096526bffffffffffffffffffffffff1994861b8516878701526074870193909352841b831660948601526001600160e01b031960e092831b1660a886015290921b1660ac83015260c0820192909252908101859052610100810184905261012081018390526101400160405160208183030381529060405280519060200120905095945050505050565b6001600160a01b0381166132895760405163d92e233d60e01b815260040160405180910390fd5b80613292612100565b60030180546001600160a01b0319166001600160a01b03928316179055604051908216907f10d6c00fd9d176c2872e8e72b76641ca85aba29bb682a658aeedbc38814fe45f90600090a250565b806132e8612100565b6003018054911515600160a01b0260ff60a01b1990921691909117905550565b6001600160a01b03811661332f5760405163d92e233d60e01b815260040160405180910390fd5b6000613339612100565b905060005b81548110156133ac57826001600160a01b031682600001828154811061336657613366614c52565b6000918252602090912001546001600160a01b0316036133a457604051632e041d7d60e01b81526001600160a01b0384166004820152602401610c12565b60010161333e565b5080546001808201835560008381526020902090910180546001600160a01b0319166001600160a01b0385161790558154908201546133ec90600261501a565b116134105780546133ff90600290615065565b61340a906001614d0d565b60018201555b6040516001600160a01b038316907f47d1c22a25bb3a5d4e481b9b1e6944c2eade3181a0a20b495ed61d35b5323f2490600090a25050565b61345282826118e8565b610bc75760405163e2517d3f60e01b81526001600160a01b038216600482015260248101839052604401610c12565b600061348e826002614d0d565b835110156134d55760405162461bcd60e51b8152602060048201526014602482015273746f55696e7431365f6f75744f66426f756e647360601b6044820152606401610c12565b50016002015190565b60606001600160801b0382161561352657604080516001600160801b0319608086811b8216602084015285901b16603082015201604051602081830303815290604052613550565b6040516001600160801b0319608085901b1660208201526030016040516020818303038152906040525b9392505050565b6060836003613567826000613481565b61ffff161461357b576122bf816000613481565b8460016135888551613a16565b613593906001615087565b86866040516020016135a99594939291906150a1565b6040516020818303038152906040529150509392505050565b6135cb82613a45565b6040516001600160a01b038316907fbc7cd75a20ee27fd9adebab32041f755214dbc6bffa90cc0225b39da2e5c2d3b90600090a280511561361057610d068282613aaa565b610bc7613b17565b60007f73df7d0999aab7659cde4cefffcf324fbcfe5bf01497e0f5d2a9d7d0eb2fd02286886000015189608001518a604001518b602001518c606001518d60a001518c8c8c8c6040516020016136e19c9b9a999897969594939291909b8c5260208c019a909a526001600160a01b0398891660408c015260608b019790975294871660808a015263ffffffff9390931660a0890152941660c087015260e08601939093526101008501929092526101208401919091526101408301526101608201526101800190565b6040516020818303038152906040528051906020012090509695505050505050565b6000610b15613710613b36565b8360405161190160f01b8152600281019290925260228201526042902090565b6000806000806137408686613b40565b9250925092506137508282613b8d565b5090949350505050565b6000613764612100565b60c0830151805160209182012060e085015180519083012061010086015180519301929092209293509160005b856101200151518110156137d75760006137ae828887878761315e565b60009081526002870160205260409020805460ff19166001908117909155919091019050613791565b505050505050565b8051156137ee57805160208201fd5b60405163d6bda27560e01b815260040160405180910390fd5b6000813410156138335760405163a458261b60e01b815234600482015260248101839052604401610c12565b5090565b60007f00000000000000000000000000000000000000000000000000000000000000006001600160a01b031663e4fe1d946040518163ffffffff1660e01b8152600401602060405180830381865afa158015613897573d6000803e3d6000fd5b505050506040513d601f19601f820116820180604052508101906138bb9190615108565b90506001600160a01b0381166138e4576040516329b99a9560e11b815260040160405180910390fd5b610bc76001600160a01b038216337f000000000000000000000000000000000000000000000000000000000000000085613c46565b613921613ca0565b61154757604051631afcd79f60e31b815260040160405180910390fd5b61293a613919565b61394e613919565b610bc78282613cba565b613960613919565b600061396a612100565b905060005b83518110156139d3578160000184828151811061398e5761398e614c52565b60209081029190910181015182546001808201855560009485529290932090920180546001600160a01b0319166001600160a01b03909316929092179091550161396f565b50600283516139e29190615065565b6139ed906001614d0d565b600182015560030180546001600160a01b0319166001600160a01b039290921691909117905550565b600061ffff821115613833576040516306dfcc6560e41b81526010600482015260248101839052604401610c12565b806001600160a01b03163b600003613a7b57604051634c9c8ce360e01b81526001600160a01b0382166004820152602401610c12565b60008051602061528983398151915280546001600160a01b0319166001600160a01b0392909216919091179055565b6060600080846001600160a01b031684604051613ac79190615125565b600060405180830381855af49150503d8060008114613b02576040519150601f19603f3d011682016040523d82523d6000602084013e613b07565b606091505b50915091506123db858383613d1b565b34156115475760405163b398979f60e01b815260040160405180910390fd5b6000610cca613d77565b60008060008351604103613b7a5760208401516040850151606086015160001a613b6c88828585613deb565b955095509550505050613b86565b50508151600091506002905b9250925092565b6000826003811115613ba157613ba1615141565b03613baa575050565b6001826003811115613bbe57613bbe615141565b03613bdc5760405163f645eedf60e01b815260040160405180910390fd5b6002826003811115613bf057613bf0615141565b03613c115760405163fce698f760e01b815260048101829052602401610c12565b6003826003811115613c2557613c25615141565b03610bc7576040516335e2f38360e21b815260048101829052602401610c12565b604080516001600160a01b0385811660248301528416604482015260648082018490528251808303909101815260849091019091526020810180516001600160e01b03166323b872dd60e01b179052610ceb908590613eba565b6000613caa612f47565b54600160401b900460ff16919050565b613cc2613919565b6000805160206152698339815191527fa16a46d94261c7517cc8ff89f61c0ce93598e3c849801011dee649a6a557d102613cfc84826151aa565b5060038101613d0b83826151aa565b5060008082556001909101555050565b606082613d3057613d2b826137df565b613550565b8151158015613d4757506001600160a01b0384163b155b15613d7057604051639996b31560e01b81526001600160a01b0385166004820152602401610c12565b5092915050565b60007f8b73c3c69bb8fe3d512ecc4cf759cc79239f7b179b0ffacaa9a75d522b39400f613da2613f2b565b613daa613f95565b60408051602081019490945283019190915260608201524660808201523060a082015260c00160405160208183030381529060405280519060200120905090565b600080807f7fffffffffffffffffffffffffffffff5d576e7357a4501ddfe92f46681b20a0841115613e265750600091506003905082613eb0565b604080516000808252602082018084528a905260ff891692820192909252606081018790526080810186905260019060a0016020604051602081039080840390855afa158015613e7a573d6000803e3d6000fd5b5050604051601f1901519150506001600160a01b038116613ea657506000925060019150829050613eb0565b9250600091508190505b9450945094915050565b600080602060008451602086016000885af180613edd576040513d6000823e3d81fd5b50506000513d91508115613ef5578060011415613f02565b6001600160a01b0384163b155b15610ceb57604051635274afe760e01b81526001600160a01b0385166004820152602401610c12565b600060008051602061526983398151915281613f45612fbd565b805190915015613f5d57805160209091012092915050565b81548015613f6c579392505050565b7fc5d2460186f7233c927e7db2dcc703c0e500b653ca82273b7bfad8045d85a470935050505090565b600060008051602061526983398151915281613faf613080565b805190915015613fc757805160209091012092915050565b60018201548015613f6c579392505050565b60405180606001604052806000801916815260200160006001600160401b0316815260200161401b604051806040016040528060008152602001600081525090565b905290565b60006020828403121561403257600080fd5b81356001600160e01b03198116811461355057600080fd5b60006060828403121561405c57600080fd5b50919050565b60008083601f84011261407457600080fd5b5081356001600160401b0381111561408b57600080fd5b6020830191508360208285010111156140a357600080fd5b9250929050565b60008060008060a085870312156140c057600080fd5b6140ca868661404a565b93506060850135925060808501356001600160401b038111156140ec57600080fd5b6140f887828801614062565b95989497509550505050565b6001600160a01b03811681146114ff57600080fd5b803561412481614104565b919050565b60006020828403121561413b57600080fd5b813561355081614104565b600080600080600080600060e0888a03121561416157600080fd5b61416b898961404a565b96506060880135955060808801356001600160401b0381111561418d57600080fd5b6141998a828b01614062565b90965094505060a08801356141ad81614104565b925060c08801356001600160401b038111156141c857600080fd5b6141d48a828b01614062565b989b979a50959850939692959293505050565b6000602082840312156141f957600080fd5b5035919050565b6000806040838503121561421357600080fd5b82359150602083013561422581614104565b809150509250929050565b803563ffffffff8116811461412457600080fd5b6000806040838503121561425757600080fd5b61426083614230565b946020939093013593505050565b80356001600160801b038116811461412457600080fd5b60008060008060008060a0878903121561429e57600080fd5b86356142a981614104565b955060208701356142b981614104565b945060408701356001600160401b038111156142d457600080fd5b6142e089828a01614062565b90955093506142f3905060608801614230565b91506143016080880161426e565b90509295509295509295565b602080825282518282018190526000918401906040840190835b8181101561434e5783516001600160a01b0316835260209384019390920191600101614327565b509095945050505050565b634e487b7160e01b600052604160045260246000fd5b604080519081016001600160401b038111828210171561439157614391614359565b60405290565b60405161014081016001600160401b038111828210171561439157614391614359565b604051601f8201601f191681016001600160401b03811182821017156143e2576143e2614359565b604052919050565b600082601f8301126143fb57600080fd5b8135602083016000806001600160401b0384111561441b5761441b614359565b50601f8301601f1916602001614430816143ba565b91505082815285838301111561444557600080fd5b82826020830137600092810160200192909252509392505050565b6000806040838503121561447357600080fd5b823561447e81614104565b915060208301356001600160401b0381111561449957600080fd5b6144a5858286016143ea565b9150509250929050565b600060a0828403121561405c57600080fd5b60008082840360a08112156144d557600080fd5b83356001600160401b038111156144eb57600080fd5b6144f7868287016144af565b9350506080601f198201121561450c57600080fd5b506020830190509250929050565b60008060008060008060c0878903121561453357600080fd5b61453d888861404a565b95506060870135945060808701356001600160401b0381111561455f57600080fd5b61456b89828a01614062565b90955093505060a08701356001600160401b0381111561458a57600080fd5b61459689828a01614062565b979a9699509497509295939492505050565b600082601f8301126145b957600080fd5b81356001600160401b038111156145d2576145d2614359565b8060051b6145e2602082016143ba565b918252602081850181019290810190868411156145fe57600080fd5b6020860192505b838310156122f95782356001600160401b0381111561462357600080fd5b86016040818903601f1901121561463957600080fd5b61464161436f565b6020820135815260408201356001600160401b0381111561466157600080fd5b6146708a6020838601016143ea565b6020830152508084525050602082019150602083019250614605565b60006020828403121561469e57600080fd5b81356001600160401b038111156146b457600080fd5b820161014081850312156146c757600080fd5b6146cf614397565b6146d882614119565b81526146e660208301614230565b60208201526146f760408301614119565b604082015261470860608301614119565b60608201526080828101359082015260a0808301359082015260c08201356001600160401b0381111561473a57600080fd5b614746868285016143ea565b60c08301525060e08201356001600160401b0381111561476557600080fd5b614771868285016143ea565b60e0830152506101008201356001600160401b0381111561479157600080fd5b61479d868285016143ea565b610100830152506101208201356001600160401b038111156147be57600080fd5b6147ca868285016145a8565b61012083015250949350505050565b60008060008060a085870312156147ef57600080fd5b6147f9868661404a565b935060608501356001600160401b0381111561481457600080fd5b61482087828801614062565b909450925050608085013561483481614104565b939692955090935050565b60005b8381101561485a578181015183820152602001614842565b50506000910152565b6000815180845261487b81602086016020860161483f565b601f01601f19169290920160200192915050565b60ff60f81b8816815260e0602082015260006148ae60e0830189614863565b82810360408401526148c08189614863565b606084018890526001600160a01b038716608085015260a0840186905283810360c08501528451808252602080870193509091019060005b818110156149165783518352602093840193909201916001016148f8565b50909b9a5050505050505050505050565b600080600080600080600060a0888a03121561494257600080fd5b61494b88614230565b9650602088013561495b81614104565b9550604088013561496b81614104565b945060608801356001600160401b0381111561498657600080fd5b6149928a828b01614062565b90955093505060808801356001600160401b038111156141c857600080fd5b6020815260006135506020830184614863565b6000602082840312156149d657600080fd5b81356001600160401b038111156149ec57600080fd5b6149f8848285016144af565b949350505050565b600060208284031215614a1257600080fd5b61355082614230565b80151581146114ff57600080fd5b600060208284031215614a3b57600080fd5b813561355081614a1b565b600060608284031215614a5857600080fd5b613550838361404a565b6001600160401b03811681146114ff57600080fd5b63ffffffff614a8582614230565b168252602081810135908301526040810135614aa081614a62565b6001600160401b0381166040840152505050565b81835281816020850137506000828201602090810191909152601f909101601f19169091010190565b6001600160a01b0386168152614af66020820186614a77565b83608082015260c060a08201526000612d7960c083018486614ab4565b60ff861681526001600160a01b03858116602083015284166040820152608060608201819052600090612d799083018486614ab4565b6000808335601e19843603018112614b6057600080fd5b8301803591506001600160401b03821115614b7a57600080fd5b6020019150368190038213156140a357600080fd5b803560ff8116811461412457600080fd5b600060208284031215614bb257600080fd5b61355082614b8f565b6001600160a01b0397881681529590961660208601526040850193909352606084019190915260ff16608083015260a082015260c081019190915260e00190565b614c068189614a77565b60018060a01b038716606082015285608082015260e060a08201526000614c3160e083018688614ab4565b82810360c0840152614c44818587614ab4565b9a9950505050505050505050565b634e487b7160e01b600052603260045260246000fd5b600060208284031215614c7a57600080fd5b5051919050565b6001600160a01b03831681526040602082018190526000906149f890830184614863565b600060208284031215614cb757600080fd5b815161355081614a1b565b60ff851681526001600160a01b038481166020830152831660408201526080606082018190526000906122f990830184614863565b634e487b7160e01b600052601160045260246000fd5b80820180821115610b1557610b15614cf7565b63ffffffff861681526001600160a01b0385811660208301528416604082015260a060608201819052600090614d5890830185614863565b90508260808301529695505050505050565b81810381811115610b1557610b15614cf7565b634e487b7160e01b600052603160045260246000fd5b60008060008060808587031215614da957600080fd5b614db285614b8f565b93506020850135614dc281614104565b92506040850135614dd281614104565b915060608501356001600160401b03811115614ded57600080fd5b614df9878288016143ea565b91505092959194509250565b63ffffffff851681526001600160a01b0384166020820152608060408201819052600090614e3590830185614863565b905082606083015295945050505050565b6040815263ffffffff8351166040820152602083015160608201526000604084015160a06080840152614e7c60e0840182614863565b90506060850151603f198483030160a0850152614e998282614863565b60809690960151151560c08501525050506001600160a01b039190911660209091015290565b600060408284031215614ed157600080fd5b614ed961436f565b825181526020928301519281019290925250919050565b600060408284031215614f0257600080fd5b6135508383614ebf565b600060208284031215614f1e57600080fd5b6135508261426e565b6001600160a01b03841681526040602082018190526000906123db9083018486614ab4565b63ffffffff871681526001600160a01b0386811660208301528516604082015260a060608201819052600090614f859083018587614ab4565b9050826080830152979650505050505050565b600060018201614faa57614faa614cf7565b5060010190565b60006080828403128015614fc457600080fd5b50604051606081016001600160401b0381118282101715614fe757614fe7614359565b604052825181526020830151614ffc81614a62565b602082015261500e8460408501614ebf565b60408201529392505050565b8082028115828204841417610b1557610b15614cf7565b600181811c9082168061504557607f821691505b60208210810361405c57634e487b7160e01b600052602260045260246000fd5b60008261508257634e487b7160e01b600052601260045260246000fd5b500490565b61ffff8181168382160190811115610b1557610b15614cf7565b600086516150b3818460208b0161483f565b6001600160f81b031960f888811b82169285019283526001600160f01b031960f089901b16600184015286901b16600382015283516150f981600484016020880161483f565b01600401979650505050505050565b60006020828403121561511a57600080fd5b815161355081614104565b6000825161513781846020870161483f565b9190910192915050565b634e487b7160e01b600052602160045260246000fd5b601f821115610d065782821115610d0657806000526020600020601f840160051c6020851015615185575060005b90810190601f840160051c0360005b818110156137d757600083820155600101615194565b81516001600160401b038111156151c3576151c3614359565b6151d7816151d18454615031565b84615157565b6020601f82116001811461520b57600083156151f35750848201515b600019600385901b1c1916600184901b1784556117fa565b600084815260208120601f198516915b8281101561523b578785015182556020948501946001909201910161521b565b50848210156152595786840151600019600387901b60f8161c191681555b50505050600190811b0190555056fea16a46d94261c7517cc8ff89f61c0ce93598e3c849801011dee649a6a557d100360894a13ba1a3210667c828492db98dca3e2076cc3735a920a3ca505d382bbc02dd7bc7dec4dceedda775e58dd541e08a116c6c53815c0bd028192f7b6268009b779b17422d0df92223018b32b4d1fa46e071723d6817e2486d003becc55f00a26469706673582212202378fd3d134a976fb47453fa32395cce7534fe142e0775f841e87d659a681e6364736f6c63430008210033",
  "linkReferences": {},
  "deployedLinkReferences": {}
}